:100000000C942A000C9434000C9434000C943400AA
:100010000C9434000C9434000C9434000C94340090
:100020000C9434000C9434000C9434000C94340080
:100030000C9434000C9434000C9434000C94340070
:100040000C9434000C9434000C9434000C94340060
:100050000C94340011241FBECFE5D8E0DEBFCDBF25
:100060000E9436000C9448000C94000081E087BB8D
:1000700088BB882311F080E001C081E02FE33DE0E0
:1000800093E0215030409040E1F700C00000F0CFF5
:04009000F894FFCF12
:00000001FF
